{
  "_format": "hh-sol-artifact-1",
  "contractName": "RunLogger",
  "sourceName": "contracts/RunLogger.sol",
  "abi": [
    {
      "inputs": [],
      "stateMutability": "nonpayable",
      "type": "constructor"
    },
    {
      "inputs": [
        {
          "internalType": "uint256",
          "name": "single_run_distance",
          "type": "uint256"
        }
      ],
      "name": "addRun",
      "outputs": [],
      "stateMutability": "nonpayable",
      "type": "function"
    },
    {
      "inputs": [],
      "name": "getRunDistance",
      "outputs": [
        {
          "internalType": "uint256",
          "name": "",
          "type": "uint256"
        }
      ],
      "stateMutability": "view",
      "type": "function"
    }
  ],
  "bytecode": "0x608060405234801561001057600080fd5b5061003c6040518060600160405280603481526020016107cd6034913961004160201b61013c1760201c565b6101c4565b6100dd816040516024016100559190610142565b6040516020818303038152906040527f41304fac000000000000000000000000000000000000000000000000000000007bffffffffffffffffffffffffffffffffffffffffffffffffffffffff19166020820180517bffffffffffffffffffffffffffffffffffffffffffffffffffffffff83818316178352505050506100e060201b60201c565b50565b60008151905060006a636f6e736f6c652e6c6f679050602083016000808483855afa5050505050565b600061011482610164565b61011e818561016f565b935061012e818560208601610180565b610137816101b3565b840191505092915050565b6000602082019050818103600083015261015c8184610109565b905092915050565b600081519050919050565b600082825260208201905092915050565b60005b8381101561019e578082015181840152602081019050610183565b838111156101ad576000848401525b50505050565b6000601f19601f8301169050919050565b6105fa806101d36000396000f3fe608060405234801561001057600080fd5b50600436106100365760003560e01c806336364e0e1461003b578063b29a891114610057575b600080fd5b6100556004803603810190610050919061034b565b610075565b005b61005f61010e565b60405161006c919061044d565b60405180910390f35b6100b46040518060400160405280601781526020017f25732068617320636f6d706c6574656420612072756e2e000000000000000000815250336101d5565b6100f36040518060400160405280601281526020017f546865792072616e202564206d696c65732e000000000000000000000000000081525082610271565b806000808282546101049190610484565b9250508190555050565b60006101346040518060600160405280602481526020016105a160249139600054610271565b600054905090565b6101d28160405160240161015091906103cb565b6040516020818303038152906040527f41304fac000000000000000000000000000000000000000000000000000000007bffffffffffffffffffffffffffffffffffffffffffffffffffffffff19166020820180517bffffffffffffffffffffffffffffffffffffffffffffffffffffffff838183161783525050505061030d565b50565b61026d82826040516024016101eb9291906103ed565b6040516020818303038152906040527f319af333000000000000000000000000000000000000000000000000000000007bffffffffffffffffffffffffffffffffffffffffffffffffffffffff19166020820180517bffffffffffffffffffffffffffffffffffffffffffffffffffffffff838183161783525050505061030d565b5050565b610309828260405160240161028792919061041d565b6040516020818303038152906040527f9710a9d0000000000000000000000000000000000000000000000000000000007bffffffffffffffffffffffffffffffffffffffffffffffffffffffff19166020820180517bffffffffffffffffffffffffffffffffffffffffffffffffffffffff838183161783525050505061030d565b5050565b60008151905060006a636f6e736f6c652e6c6f679050602083016000808483855afa5050505050565b60008135905061034581610589565b92915050565b60006020828403121561035d57600080fd5b600061036b84828501610336565b91505092915050565b61037d816104da565b82525050565b600061038e82610468565b6103988185610473565b93506103a8818560208601610516565b6103b181610578565b840191505092915050565b6103c58161050c565b82525050565b600060208201905081810360008301526103e58184610383565b905092915050565b600060408201905081810360008301526104078185610383565b90506104166020830184610374565b9392505050565b600060408201905081810360008301526104378185610383565b905061044660208301846103bc565b9392505050565b600060208201905061046260008301846103bc565b92915050565b600081519050919050565b600082825260208201905092915050565b600061048f8261050c565b915061049a8361050c565b9250827fffffffffffffffffffffffffffffffffffffffffffffffffffffffffffffffff038211156104cf576104ce610549565b5b828201905092915050565b60006104e5826104ec565b9050919050565b600073ffffffffffffffffffffffffffffffffffffffff82169050919050565b6000819050919050565b60005b83811015610534578082015181840152602081019050610519565b83811115610543576000848401525b50505050565b7f4e487b7100000000000000000000000000000000000000000000000000000000600052601160045260246000fd5b6000601f19601f8301169050919050565b6105928161050c565b811461059d57600080fd5b5056fe506c617965722031206861732072756e206120746f74616c206f66202564206d696c6573a264697066735822122036752874af5a451c97ac225bbdbfd98fc7d9e098bd2237496d3c7e85d475128b64736f6c634300080400334920616d207468652072756e206c6f676765722e2049206c6f672072756e732e20284920646f6e27742072756e206c6f67732e29",
  "linkReferences": {},
  "deployedLinkReferences": {}
}